{"contracts/ZKMLVerifier.sol":{"ZKMLVerifier":{"abi":[{"inputs":[{"internalType":"address","name":"_verifier","type":"address"}],"stateMutability":"nonpayable","type":"constructor"},{"inputs":[],"name":"verifier","outputs":[{"internalType":"contract Groth16Verifier","name":"","type":"address"}],"stateMutability":"view","type":"function"},{"inputs":[{"internalType":"uint256[2]","name":"a","type":"uint256[2]"},{"internalType":"uint256[2][2]","name":"b","type":"uint256[2][2]"},{"internalType":"uint256[2]","name":"c","type":"uint256[2]"},{"internalType":"uint256[1]","name":"input","type":"uint256[1]"}],"name":"verifyMLInference","outputs":[{"internalType":"bool","name":"","type":"bool"}],"stateMutability":"view","type":"function"}],"evm":{"bytecode":{"linkReferences":{},"object":"608060405234801561001057600080fd5b5060405161099b38038061099b833981810160405281019061003291906100db565b806000806101000a81548173ffffffffffffffffffffffffffffffffffffffff021916908373ffffffffffffffffffffffffffffffffffffffff16021790555050610108565b600080fd5b600073ffffffffffffffffffffffffffffffffffffffff82169050919050565b60006100a88261007d565b9050919050565b6100b88161009d565b81146100c357600080fd5b50565b6000815190506100d5816100af565b92915050565b6000602082840312156100f1576100f0610078565b5b60006100ff848285016100c6565b91505092915050565b610884806101176000396000f3fe608060405234801561001057600080fd5b50600436106100365760003560e01c80632b7ac3f31461003b578063dc8cae9514610059575b600080fd5b610043610089565b60405161005091906101d9565b60405180910390f35b610073600480360381019061006e91906104e2565b6100ad565b6040516100809190610566565b60405180910390f35b60008054906101000a900473ffffffffffffffffffffffffffffffffffffffff1681565b60008060009054906101000a900473ffffffffffffffffffffffffffffffffffffffff1673ffffffffffffffffffffffffffffffffffffffff166343753b4d868686866040518563ffffffff1660e01b815260040161010f94939291906107ae565b602060405180830381865afa15801561012c573d6000803e3d6000fd5b505050506040513d601f19601f820116820180604052508101906101509190610821565b9050949350505050565b600073ffffffffffffffffffffffffffffffffffffffff82169050919050565b6000819050919050565b600061019f61019a6101958461015a565b61017a565b61015a565b9050919050565b60006101b182610184565b9050919050565b60006101c3826101a6565b9050919050565b6101d3816101b8565b82525050565b60006020820190506101ee60008301846101ca565b92915050565b6000604051905090565b600080fd5b600080fd5b6000601f19601f8301169050919050565b7f4e487b7100000000000000000000000000000000000000000000000000000000600052604160045260246000fd5b61025182610208565b810181811067ffffffffffffffff821117156102705761026f610219565b5b80604052505050565b60006102836101f4565b905061028f8282610248565b919050565b600067ffffffffffffffff8211156102af576102ae610219565b5b602082029050919050565b600080fd5b6000819050919050565b6102d2816102bf565b81146102dd57600080fd5b50565b6000813590506102ef816102c9565b92915050565b600061030861030384610294565b610279565b90508060208402830185811115610322576103216102ba565b5b835b8181101561034b578061033788826102e0565b845260208401935050602081019050610324565b5050509392505050565b600082601f83011261036a57610369610203565b5b60026103778482856102f5565b91505092915050565b600067ffffffffffffffff82111561039b5761039a610219565b5b602082029050919050565b60006103b96103b484610380565b610279565b905080604084028301858111156103d3576103d26102ba565b5b835b818110156103fc57806103e88882610355565b8452602084019350506040810190506103d5565b5050509392505050565b600082601f83011261041b5761041a610203565b5b60026104288482856103a6565b91505092915050565b600067ffffffffffffffff82111561044c5761044b610219565b5b602082029050919050565b600061046a61046584610431565b610279565b90508060208402830185811115610484576104836102ba565b5b835b818110156104ad578061049988826102e0565b845260208401935050602081019050610486565b5050509392505050565b600082601f8301126104cc576104cb610203565b5b60016104d9848285610457565b91505092915050565b60008060008061012085870312156104fd576104fc6101fe565b5b600061050b87828801610355565b945050604061051c87828801610406565b93505060c061052d87828801610355565b92505061010061053f878288016104b7565b91505092959194509250565b60008115159050919050565b6105608161054b565b82525050565b600060208201905061057b6000830184610557565b92915050565b600060029050919050565b600081905092915050565b6000819050919050565b6105aa816102bf565b82525050565b60006105bc83836105a1565b60208301905092915050565b6000602082019050919050565b6105de81610581565b6105e8818461058c565b92506105f382610597565b8060005b8381101561062457815161060b87826105b0565b9650610616836105c8565b9250506001810190506105f7565b505050505050565b600060029050919050565b600081905092915050565b6000819050919050565b600081905092915050565b61066081610581565b61066a818461064c565b925061067582610597565b8060005b838110156106a657815161068d87826105b0565b9650610698836105c8565b925050600181019050610679565b505050505050565b60006106ba8383610657565b60408301905092915050565b6000602082019050919050565b6106dc8161062c565b6106e68184610637565b92506106f182610642565b8060005b8381101561072257815161070987826106ae565b9650610714836106c6565b9250506001810190506106f5565b505050505050565b600060019050919050565b600081905092915050565b6000819050919050565b6000602082019050919050565b6107608161072a565b61076a8184610735565b925061077582610740565b8060005b838110156107a657815161078d87826105b0565b96506107988361074a565b925050600181019050610779565b505050505050565b6000610120820190506107c460008301876105d5565b6107d160408301866106d3565b6107de60c08301856105d5565b6107ec610100830184610757565b95945050505050565b6107fe8161054b565b811461080957600080fd5b50565b60008151905061081b816107f5565b92915050565b600060208284031215610837576108366101fe565b5b60006108458482850161080c565b9150509291505056fea2646970667358221220b037b0fb1abcccd810bbcbdc4a6064ac11e064a5564917749f115c1b0f4f8f4164736f6c634300081c0033","opcodes":"PUSH1 0x80 PUSH1 0x40 MSTORE CALLVALUE DUP1 ISZERO PUSH2 0x10 JUMPI PUSH1 0x0 DUP1 REVERT JUMPDEST POP PUSH1 0x40 MLOAD PUSH2 0x99B CODESIZE SUB DUP1 PUSH2 0x99B DUP4 CODECOPY DUP2 DUP2 ADD PUSH1 0x40 MSTORE DUP2 ADD SWAP1 PUSH2 0x32 SWAP2 SWAP1 PUSH2 0xDB JUMP JUMPDEST DUP1 PUSH1 0x0 DUP1 PUSH2 0x100 EXP DUP2 SLOAD DUP2 PUSH20 0xFFFFFFFFFFFFFFFFFFFFFFFFFFFFFFFFFFFFFFFF MUL NOT AND SWAP1 DUP4 PUSH20 0xFFFFFFFFFFFFFFFFFFFFFFFFFFFFFFFFFFFFFFFF AND MUL OR SWAP1 SSTORE POP POP PUSH2 0x108 JUMP JUMPDEST PUSH1 0x0 DUP1 REVERT JUMPDEST PUSH1 0x0 PUSH20 0xFFFFFFFFFFFFFFFFFFFFFFFFFFFFFFFFFFFFFFFF DUP3 AND SWAP1 POP SWAP2 SWAP1 POP JUMP JUMPDEST PUSH1 0x0 PUSH2 0xA8 DUP3 PUSH2 0x7D JUMP JUMPDEST SWAP1 POP SWAP2 SWAP1 POP JUMP JUMPDEST PUSH2 0xB8 DUP2 PUSH2 0x9D JUMP JUMPDEST DUP2 EQ PUSH2 0xC3 JUMPI PUSH1 0x0 DUP1 REVERT JUMPDEST POP JUMP JUMPDEST PUSH1 0x0 DUP2 MLOAD SWAP1 POP PUSH2 0xD5 DUP2 PUSH2 0xAF JUMP JUMPDEST SWAP3 SWAP2 POP POP JUMP JUMPDEST PUSH1 0x0 PUSH1 0x20 DUP3 DUP5 SUB SLT ISZERO PUSH2 0xF1 JUMPI PUSH2 0xF0 PUSH2 0x78 JUMP JUMPDEST JUMPDEST PUSH1 0x0 PUSH2 0xFF DUP5 DUP3 DUP6 ADD PUSH2 0xC6 JUMP JUMPDEST SWAP2 POP POP SWAP3 SWAP2 POP POP JUMP JUMPDEST PUSH2 0x884 DUP1 PUSH2 0x117 PUSH1 0x0 CODECOPY PUSH1 0x0 RETURN INVALID PUSH1 0x80 PUSH1 0x40 MSTORE CALLVALUE DUP1 ISZERO PUSH2 0x10 JUMPI PUSH1 0x0 DUP1 REVERT JUMPDEST POP PUSH1 0x4 CALLDATASIZE LT PUSH2 0x36 JUMPI PUSH1 0x0 CALLDATALOAD PUSH1 0xE0 SHR DUP1 PUSH4 0x2B7AC3F3 EQ PUSH2 0x3B JUMPI DUP1 PUSH4 0xDC8CAE95 EQ PUSH2 0x59 JUMPI JUMPDEST PUSH1 0x0 DUP1 REVERT JUMPDEST PUSH2 0x43 PUSH2 0x89 JUMP JUMPDEST PUSH1 0x40 MLOAD PUSH2 0x50 SWAP2 SWAP1 PUSH2 0x1D9 JUMP JUMPDEST PUSH1 0x40 MLOAD DUP1 SWAP2 SUB SWAP1 RETURN JUMPDEST PUSH2 0x73 PUSH1 0x4 DUP1 CALLDATASIZE SUB DUP2 ADD SWAP1 PUSH2 0x6E SWAP2 SWAP1 PUSH2 0x4E2 JUMP JUMPDEST PUSH2 0xAD JUMP JUMPDEST PUSH1 0x40 MLOAD PUSH2 0x80 SWAP2 SWAP1 PUSH2 0x566 JUMP JUMPDEST PUSH1 0x40 MLOAD DUP1 SWAP2 SUB SWAP1 RETURN JUMPDEST PUSH1 0x0 DUP1 SLOAD SWAP1 PUSH2 0x100 EXP SWAP1 DIV PUSH20 0xFFFFFFFFFFFFFFFFFFFFFFFFFFFFFFFFFFFFFFFF AND DUP2 JUMP JUMPDEST PUSH1 0x0 DUP1 PUSH1 0x0 SWAP1 SLOAD SWAP1 PUSH2 0x100 EXP SWAP1 DIV PUSH20 0xFFFFFFFFFFFFFFFFFFFFFFFFFFFFFFFFFFFFFFFF AND PUSH20 0xFFFFFFFFFFFFFFFFFFFFFFFFFFFFFFFFFFFFFFFF AND PUSH4 0x43753B4D DUP7 DUP7 DUP7 DUP7 PUSH1 0x40 MLOAD DUP6 PUSH4 0xFFFFFFFF AND PUSH1 0xE0 SHL DUP2 MSTORE PUSH1 0x4 ADD PUSH2 0x10F SWAP5 SWAP4 SWAP3 SWAP2 SWAP1 PUSH2 0x7AE JUMP JUMPDEST PUSH1 0x20 PUSH1 0x40 MLOAD DUP1 DUP4 SUB DUP2 DUP7 GAS STATICCALL ISZERO DUP1 ISZERO PUSH2 0x12C JUMPI RETURNDATASIZE PUSH1 0x0 DUP1 RETURNDATACOPY RETURNDATASIZE PUSH1 0x0 REVERT JUMPDEST POP POP POP POP PUSH1 0x40 MLOAD RETURNDATASIZE PUSH1 0x1F NOT PUSH1 0x1F DUP3 ADD AND DUP3 ADD DUP1 PUSH1 0x40 MSTORE POP DUP2 ADD SWAP1 PUSH2 0x150 SWAP2 SWAP1 PUSH2 0x821 JUMP JUMPDEST SWAP1 POP SWAP5 SWAP4 POP POP POP POP JUMP JUMPDEST PUSH1 0x0 PUSH20 0xFFFFFFFFFFFFFFFFFFFFFFFFFFFFFFFFFFFFFFFF DUP3 AND SWAP1 POP SWAP2 SWAP1 POP JUMP JUMPDEST PUSH1 0x0 DUP2 SWAP1 POP SWAP2 SWAP1 POP JUMP JUMPDEST PUSH1 0x0 PUSH2 0x19F PUSH2 0x19A PUSH2 0x195 DUP5 PUSH2 0x15A JUMP JUMPDEST PUSH2 0x17A JUMP JUMPDEST PUSH2 0x15A JUMP JUMPDEST SWAP1 POP SWAP2 SWAP1 POP JUMP JUMPDEST PUSH1 0x0 PUSH2 0x1B1 DUP3 PUSH2 0x184 JUMP JUMPDEST SWAP1 POP SWAP2 SWAP1 POP JUMP JUMPDEST PUSH1 0x0 PUSH2 0x1C3 DUP3 PUSH2 0x1A6 JUMP JUMPDEST SWAP1 POP SWAP2 SWAP1 POP JUMP JUMPDEST PUSH2 0x1D3 DUP2 PUSH2 0x1B8 JUMP JUMPDEST DUP3 MSTORE POP POP JUMP JUMPDEST PUSH1 0x0 PUSH1 0x20 DUP3 ADD SWAP1 POP PUSH2 0x1EE PUSH1 0x0 DUP4 ADD DUP5 PUSH2 0x1CA JUMP JUMPDEST SWAP3 SWAP2 POP POP JUMP JUMPDEST PUSH1 0x0 PUSH1 0x40 MLOAD SWAP1 POP SWAP1 JUMP JUMPDEST PUSH1 0x0 DUP1 REVERT JUMPDEST PUSH1 0x0 DUP1 REVERT JUMPDEST PUSH1 0x0 PUSH1 0x1F NOT PUSH1 0x1F DUP4 ADD AND SWAP1 POP SWAP2 SWAP1 POP JUMP JUMPDEST PUSH32 0x4E487B7100000000000000000000000000000000000000000000000000000000 PUSH1 0x0 MSTORE PUSH1 0x41 PUSH1 0x4 MSTORE PUSH1 0x24 PUSH1 0x0 REVERT JUMPDEST PUSH2 0x251 DUP3 PUSH2 0x208 JUMP JUMPDEST DUP2 ADD DUP2 DUP2 LT PUSH8 0xFFFFFFFFFFFFFFFF DUP3 GT OR ISZERO PUSH2 0x270 JUMPI PUSH2 0x26F PUSH2 0x219 JUMP JUMPDEST JUMPDEST DUP1 PUSH1 0x40 MSTORE POP POP POP JUMP JUMPDEST PUSH1 0x0 PUSH2 0x283 PUSH2 0x1F4 JUMP JUMPDEST SWAP1 POP PUSH2 0x28F DUP3 DUP3 PUSH2 0x248 JUMP JUMPDEST SWAP2 SWAP1 POP JUMP JUMPDEST PUSH1 0x0 PUSH8 0xFFFFFFFFFFFFFFFF DUP3 GT ISZERO PUSH2 0x2AF JUMPI PUSH2 0x2AE PUSH2 0x219 JUMP JUMPDEST JUMPDEST PUSH1 0x20 DUP3 MUL SWAP1 POP SWAP2 SWAP1 POP JUMP JUMPDEST PUSH1 0x0 DUP1 REVERT JUMPDEST PUSH1 0x0 DUP2 SWAP1 POP SWAP2 SWAP1 POP JUMP JUMPDEST PUSH2 0x2D2 DUP2 PUSH2 0x2BF JUMP JUMPDEST DUP2 EQ PUSH2 0x2DD JUMPI PUSH1 0x0 DUP1 REVERT JUMPDEST POP JUMP JUMPDEST PUSH1 0x0 DUP2 CALLDATALOAD SWAP1 POP PUSH2 0x2EF DUP2 PUSH2 0x2C9 JUMP JUMPDEST SWAP3 SWAP2 POP POP JUMP JUMPDEST PUSH1 0x0 PUSH2 0x308 PUSH2 0x303 DUP5 PUSH2 0x294 JUMP JUMPDEST PUSH2 0x279 JUMP JUMPDEST SWAP1 POP DUP1 PUSH1 0x20 DUP5 MUL DUP4 ADD DUP6 DUP2 GT ISZERO PUSH2 0x322 JUMPI PUSH2 0x321 PUSH2 0x2BA JUMP JUMPDEST JUMPDEST DUP4 JUMPDEST DUP2 DUP2 LT ISZERO PUSH2 0x34B JUMPI DUP1 PUSH2 0x337 DUP9 DUP3 PUSH2 0x2E0 JUMP JUMPDEST DUP5 MSTORE PUSH1 0x20 DUP5 ADD SWAP4 POP POP PUSH1 0x20 DUP2 ADD SWAP1 POP PUSH2 0x324 JUMP JUMPDEST POP POP POP SWAP4 SWAP3 POP POP POP JUMP JUMPDEST PUSH1 0x0 DUP3 PUSH1 0x1F DUP4 ADD SLT PUSH2 0x36A JUMPI PUSH2 0x369 PUSH2 0x203 JUMP JUMPDEST JUMPDEST PUSH1 0x2 PUSH2 0x377 DUP5 DUP3 DUP6 PUSH2 0x2F5 JUMP JUMPDEST SWAP2 POP POP SWAP3 SWAP2 POP POP JUMP JUMPDEST PUSH1 0x0 PUSH8 0xFFFFFFFFFFFFFFFF DUP3 GT ISZERO PUSH2 0x39B JUMPI PUSH2 0x39A PUSH2 0x219 JUMP JUMPDEST JUMPDEST PUSH1 0x20 DUP3 MUL SWAP1 POP SWAP2 SWAP1 POP JUMP JUMPDEST PUSH1 0x0 PUSH2 0x3B9 PUSH2 0x3B4 DUP5 PUSH2 0x380 JUMP JUMPDEST PUSH2 0x279 JUMP JUMPDEST SWAP1 POP DUP1 PUSH1 0x40 DUP5 MUL DUP4 ADD DUP6 DUP2 GT ISZERO PUSH2 0x3D3 JUMPI PUSH2 0x3D2 PUSH2 0x2BA JUMP JUMPDEST JUMPDEST DUP4 JUMPDEST DUP2 DUP2 LT ISZERO PUSH2 0x3FC JUMPI DUP1 PUSH2 0x3E8 DUP9 DUP3 PUSH2 0x355 JUMP JUMPDEST DUP5 MSTORE PUSH1 0x20 DUP5 ADD SWAP4 POP POP PUSH1 0x40 DUP2 ADD SWAP1 POP PUSH2 0x3D5 JUMP JUMPDEST POP POP POP SWAP4 SWAP3 POP POP POP JUMP JUMPDEST PUSH1 0x0 DUP3 PUSH1 0x1F DUP4 ADD SLT PUSH2 0x41B JUMPI PUSH2 0x41A PUSH2 0x203 JUMP JUMPDEST JUMPDEST PUSH1 0x2 PUSH2 0x428 DUP5 DUP3 DUP6 PUSH2 0x3A6 JUMP JUMPDEST SWAP2 POP POP SWAP3 SWAP2 POP POP JUMP JUMPDEST PUSH1 0x0 PUSH8 0xFFFFFFFFFFFFFFFF DUP3 GT ISZERO PUSH2 0x44C JUMPI PUSH2 0x44B PUSH2 0x219 JUMP JUMPDEST JUMPDEST PUSH1 0x20 DUP3 MUL SWAP1 POP SWAP2 SWAP1 POP JUMP JUMPDEST PUSH1 0x0 PUSH2 0x46A PUSH2 0x465 DUP5 PUSH2 0x431 JUMP JUMPDEST PUSH2 0x279 JUMP JUMPDEST SWAP1 POP DUP1 PUSH1 0x20 DUP5 MUL DUP4 ADD DUP6 DUP2 GT ISZERO PUSH2 0x484 JUMPI PUSH2 0x483 PUSH2 0x2BA JUMP JUMPDEST JUMPDEST DUP4 JUMPDEST DUP2 DUP2 LT ISZERO PUSH2 0x4AD JUMPI DUP1 PUSH2 0x499 DUP9 DUP3 PUSH2 0x2E0 JUMP JUMPDEST DUP5 MSTORE PUSH1 0x20 DUP5 ADD SWAP4 POP POP PUSH1 0x20 DUP2 ADD SWAP1 POP PUSH2 0x486 JUMP JUMPDEST POP POP POP SWAP4 SWAP3 POP POP POP JUMP JUMPDEST PUSH1 0x0 DUP3 PUSH1 0x1F DUP4 ADD SLT PUSH2 0x4CC JUMPI PUSH2 0x4CB PUSH2 0x203 JUMP JUMPDEST JUMPDEST PUSH1 0x1 PUSH2 0x4D9 DUP5 DUP3 DUP6 PUSH2 0x457 JUMP JUMPDEST SWAP2 POP POP SWAP3 SWAP2 POP POP JUMP JUMPDEST PUSH1 0x0 DUP1 PUSH1 0x0 DUP1 PUSH2 0x120 DUP6 DUP8 SUB SLT ISZERO PUSH2 0x4FD JUMPI PUSH2 0x4FC PUSH2 0x1FE JUMP JUMPDEST JUMPDEST PUSH1 0x0 PUSH2 0x50B DUP8 DUP3 DUP9 ADD PUSH2 0x355 JUMP JUMPDEST SWAP5 POP POP PUSH1 0x40 PUSH2 0x51C DUP8 DUP3 DUP9 ADD PUSH2 0x406 JUMP JUMPDEST SWAP4 POP POP PUSH1 0xC0 PUSH2 0x52D DUP8 DUP3 DUP9 ADD PUSH2 0x355 JUMP JUMPDEST SWAP3 POP POP PUSH2 0x100 PUSH2 0x53F DUP8 DUP3 DUP9 ADD PUSH2 0x4B7 JUMP JUMPDEST SWAP2 POP POP SWAP3 SWAP6 SWAP2 SWAP5 POP SWAP3 POP JUMP JUMPDEST PUSH1 0x0 DUP2 ISZERO ISZERO SWAP1 POP SWAP2 SWAP1 POP JUMP JUMPDEST PUSH2 0x560 DUP2 PUSH2 0x54B JUMP JUMPDEST DUP3 MSTORE POP POP JUMP JUMPDEST PUSH1 0x0 PUSH1 0x20 DUP3 ADD SWAP1 POP PUSH2 0x57B PUSH1 0x0 DUP4 ADD DUP5 PUSH2 0x557 JUMP JUMPDEST SWAP3 SWAP2 POP POP JUMP JUMPDEST PUSH1 0x0 PUSH1 0x2 SWAP1 POP SWAP2 SWAP1 POP JUMP JUMPDEST PUSH1 0x0 DUP2 SWAP1 POP SWAP3 SWAP2 POP POP JUMP JUMPDEST PUSH1 0x0 DUP2 SWAP1 POP SWAP2 SWAP1 POP JUMP JUMPDEST PUSH2 0x5AA DUP2 PUSH2 0x2BF JUMP JUMPDEST DUP3 MSTORE POP POP JUMP JUMPDEST PUSH1 0x0 PUSH2 0x5BC DUP4 DUP4 PUSH2 0x5A1 JUMP JUMPDEST PUSH1 0x20 DUP4 ADD SWAP1 POP SWAP3 SWAP2 POP POP JUMP JUMPDEST PUSH1 0x0 PUSH1 0x20 DUP3 ADD SWAP1 POP SWAP2 SWAP1 POP JUMP JUMPDEST PUSH2 0x5DE DUP2 PUSH2 0x581 JUMP JUMPDEST PUSH2 0x5E8 DUP2 DUP5 PUSH2 0x58C JUMP JUMPDEST SWAP3 POP PUSH2 0x5F3 DUP3 PUSH2 0x597 JUMP JUMPDEST DUP1 PUSH1 0x0 JUMPDEST DUP4 DUP2 LT ISZERO PUSH2 0x624 JUMPI DUP2 MLOAD PUSH2 0x60B DUP8 DUP3 PUSH2 0x5B0 JUMP JUMPDEST SWAP7 POP PUSH2 0x616 DUP4 PUSH2 0x5C8 JUMP JUMPDEST SWAP3 POP POP PUSH1 0x1 DUP2 ADD SWAP1 POP PUSH2 0x5F7 JUMP JUMPDEST POP POP POP POP POP POP JUMP JUMPDEST PUSH1 0x0 PUSH1 0x2 SWAP1 POP SWAP2 SWAP1 POP JUMP JUMPDEST PUSH1 0x0 DUP2 SWAP1 POP SWAP3 SWAP2 POP POP JUMP JUMPDEST PUSH1 0x0 DUP2 SWAP1 POP SWAP2 SWAP1 POP JUMP JUMPDEST PUSH1 0x0 DUP2 SWAP1 POP SWAP3 SWAP2 POP POP JUMP JUMPDEST PUSH2 0x660 DUP2 PUSH2 0x581 JUMP JUMPDEST PUSH2 0x66A DUP2 DUP5 PUSH2 0x64C JUMP JUMPDEST SWAP3 POP PUSH2 0x675 DUP3 PUSH2 0x597 JUMP JUMPDEST DUP1 PUSH1 0x0 JUMPDEST DUP4 DUP2 LT ISZERO PUSH2 0x6A6 JUMPI DUP2 MLOAD PUSH2 0x68D DUP8 DUP3 PUSH2 0x5B0 JUMP JUMPDEST SWAP7 POP PUSH2 0x698 DUP4 PUSH2 0x5C8 JUMP JUMPDEST SWAP3 POP POP PUSH1 0x1 DUP2 ADD SWAP1 POP PUSH2 0x679 JUMP JUMPDEST POP POP POP POP POP POP JUMP JUMPDEST PUSH1 0x0 PUSH2 0x6BA DUP4 DUP4 PUSH2 0x657 JUMP JUMPDEST PUSH1 0x40 DUP4 ADD SWAP1 POP SWAP3 SWAP2 POP POP JUMP JUMPDEST PUSH1 0x0 PUSH1 0x20 DUP3 ADD SWAP1 POP SWAP2 SWAP1 POP JUMP JUMPDEST PUSH2 0x6DC DUP2 PUSH2 0x62C JUMP JUMPDEST PUSH2 0x6E6 DUP2 DUP5 PUSH2 0x637 JUMP JUMPDEST SWAP3 POP PUSH2 0x6F1 DUP3 PUSH2 0x642 JUMP JUMPDEST DUP1 PUSH1 0x0 JUMPDEST DUP4 DUP2 LT ISZERO PUSH2 0x722 JUMPI DUP2 MLOAD PUSH2 0x709 DUP8 DUP3 PUSH2 0x6AE JUMP JUMPDEST SWAP7 POP PUSH2 0x714 DUP4 PUSH2 0x6C6 JUMP JUMPDEST SWAP3 POP POP PUSH1 0x1 DUP2 ADD SWAP1 POP PUSH2 0x6F5 JUMP JUMPDEST POP POP POP POP POP POP JUMP JUMPDEST PUSH1 0x0 PUSH1 0x1 SWAP1 POP SWAP2 SWAP1 POP JUMP JUMPDEST PUSH1 0x0 DUP2 SWAP1 POP SWAP3 SWAP2 POP POP JUMP JUMPDEST PUSH1 0x0 DUP2 SWAP1 POP SWAP2 SWAP1 POP JUMP JUMPDEST PUSH1 0x0 PUSH1 0x20 DUP3 ADD SWAP1 POP SWAP2 SWAP1 POP JUMP JUMPDEST PUSH2 0x760 DUP2 PUSH2 0x72A JUMP JUMPDEST PUSH2 0x76A DUP2 DUP5 PUSH2 0x735 JUMP JUMPDEST SWAP3 POP PUSH2 0x775 DUP3 PUSH2 0x740 JUMP JUMPDEST DUP1 PUSH1 0x0 JUMPDEST DUP4 DUP2 LT ISZERO PUSH2 0x7A6 JUMPI DUP2 MLOAD PUSH2 0x78D DUP8 DUP3 PUSH2 0x5B0 JUMP JUMPDEST SWAP7 POP PUSH2 0x798 DUP4 PUSH2 0x74A JUMP JUMPDEST SWAP3 POP POP PUSH1 0x1 DUP2 ADD SWAP1 POP PUSH2 0x779 JUMP JUMPDEST POP POP POP POP POP POP JUMP JUMPDEST PUSH1 0x0 PUSH2 0x120 DUP3 ADD SWAP1 POP PUSH2 0x7C4 PUSH1 0x0 DUP4 ADD DUP8 PUSH2 0x5D5 JUMP JUMPDEST PUSH2 0x7D1 PUSH1 0x40 DUP4 ADD DUP7 PUSH2 0x6D3 JUMP JUMPDEST PUSH2 0x7DE PUSH1 0xC0 DUP4 ADD DUP6 PUSH2 0x5D5 JUMP JUMPDEST PUSH2 0x7EC PUSH2 0x100 DUP4 ADD DUP5 PUSH2 0x757 JUMP JUMPDEST SWAP6 SWAP5 POP POP POP POP POP JUMP JUMPDEST PUSH2 0x7FE DUP2 PUSH2 0x54B JUMP JUMPDEST DUP2 EQ PUSH2 0x809 JUMPI PUSH1 0x0 DUP1 REVERT JUMPDEST POP JUMP JUMPDEST PUSH1 0x0 DUP2 MLOAD SWAP1 POP PUSH2 0x81B DUP2 PUSH2 0x7F5 JUMP JUMPDEST SWAP3 SWAP2 POP POP JUMP JUMPDEST PUSH1 0x0 PUSH1 0x20 DUP3 DUP5 SUB SLT ISZERO PUSH2 0x837 JUMPI PUSH2 0x836 PUSH2 0x1FE JUMP JUMPDEST JUMPDEST PUSH1 0x0 PUSH2 0x845 DUP5 DUP3 DUP6 ADD PUSH2 0x80C JUMP JUMPDEST SWAP2 POP POP SWAP3 SWAP2 POP POP JUMP INVALID LOG2 PUSH5 0x6970667358 0x22 SLT KECCAK256 0xB0 CALLDATACOPY 0xB0 0xFB BYTE 0xBC 0xCC 0xD8 LT 0xBB 0xCB 0xDC BLOBBASEFEE PUSH1 0x64 0xAC GT 0xE0 PUSH5 0xA556491774 SWAP16 GT TLOAD SHL 0xF 0x4F DUP16 COINBASE PUSH5 0x736F6C6343 STOP ADDMOD SHR STOP CALLER "},"methodIdentifiers":{"verifier()":"2b7ac3f3","verifyMLInference(uint256[2],uint256[2][2],uint256[2],uint256[1])":"dc8cae95"}}}}}