{
  "_format": "hh-sol-artifact-1",
  "contractName": "ZKMLVerifier",
  "sourceName": "contracts/ZKMLVerifier.sol",
  "abi": [
    {
      "inputs": [
        {
          "internalType": "address",
          "name": "_verifier",
          "type": "address"
        }
      ],
      "stateMutability": "nonpayable",
      "type": "constructor"
    },
    {
      "inputs": [],
      "name": "verifier",
      "outputs": [
        {
          "internalType": "contract Groth16Verifier",
          "name": "",
          "type": "address"
        }
      ],
      "stateMutability": "view",
      "type": "function"
    },
    {
      "inputs": [
        {
          "internalType": "uint256[2]",
          "name": "a",
          "type": "uint256[2]"
        },
        {
          "internalType": "uint256[2][2]",
          "name": "b",
          "type": "uint256[2][2]"
        },
        {
          "internalType": "uint256[2]",
          "name": "c",
          "type": "uint256[2]"
        },
        {
          "internalType": "uint256[1]",
          "name": "input",
          "type": "uint256[1]"
        }
      ],
      "name": "verifyMLInference",
      "outputs": [
        {
          "internalType": "bool",
          "name": "",
          "type": "bool"
        }
      ],
      "stateMutability": "view",
      "type": "function"
    }
  ],
  "bytecode": "0x608060405234801561001057600080fd5b5060405161099b38038061099b833981810160405281019061003291906100db565b806000806101000a81548173ffffffffffffffffffffffffffffffffffffffff021916908373ffffffffffffffffffffffffffffffffffffffff16021790555050610108565b600080fd5b600073ffffffffffffffffffffffffffffffffffffffff82169050919050565b60006100a88261007d565b9050919050565b6100b88161009d565b81146100c357600080fd5b50565b6000815190506100d5816100af565b92915050565b6000602082840312156100f1576100f0610078565b5b60006100ff848285016100c6565b91505092915050565b610884806101176000396000f3fe608060405234801561001057600080fd5b50600436106100365760003560e01c80632b7ac3f31461003b578063dc8cae9514610059575b600080fd5b610043610089565b60405161005091906101d9565b60405180910390f35b610073600480360381019061006e91906104e2565b6100ad565b6040516100809190610566565b60405180910390f35b60008054906101000a900473ffffffffffffffffffffffffffffffffffffffff1681565b60008060009054906101000a900473ffffffffffffffffffffffffffffffffffffffff1673ffffffffffffffffffffffffffffffffffffffff166343753b4d868686866040518563ffffffff1660e01b815260040161010f94939291906107ae565b602060405180830381865afa15801561012c573d6000803e3d6000fd5b505050506040513d601f19601f820116820180604052508101906101509190610821565b9050949350505050565b600073ffffffffffffffffffffffffffffffffffffffff82169050919050565b6000819050919050565b600061019f61019a6101958461015a565b61017a565b61015a565b9050919050565b60006101b182610184565b9050919050565b60006101c3826101a6565b9050919050565b6101d3816101b8565b82525050565b60006020820190506101ee60008301846101ca565b92915050565b6000604051905090565b600080fd5b600080fd5b6000601f19601f8301169050919050565b7f4e487b7100000000000000000000000000000000000000000000000000000000600052604160045260246000fd5b61025182610208565b810181811067ffffffffffffffff821117156102705761026f610219565b5b80604052505050565b60006102836101f4565b905061028f8282610248565b919050565b600067ffffffffffffffff8211156102af576102ae610219565b5b602082029050919050565b600080fd5b6000819050919050565b6102d2816102bf565b81146102dd57600080fd5b50565b6000813590506102ef816102c9565b92915050565b600061030861030384610294565b610279565b90508060208402830185811115610322576103216102ba565b5b835b8181101561034b578061033788826102e0565b845260208401935050602081019050610324565b5050509392505050565b600082601f83011261036a57610369610203565b5b60026103778482856102f5565b91505092915050565b600067ffffffffffffffff82111561039b5761039a610219565b5b602082029050919050565b60006103b96103b484610380565b610279565b905080604084028301858111156103d3576103d26102ba565b5b835b818110156103fc57806103e88882610355565b8452602084019350506040810190506103d5565b5050509392505050565b600082601f83011261041b5761041a610203565b5b60026104288482856103a6565b91505092915050565b600067ffffffffffffffff82111561044c5761044b610219565b5b602082029050919050565b600061046a61046584610431565b610279565b90508060208402830185811115610484576104836102ba565b5b835b818110156104ad578061049988826102e0565b845260208401935050602081019050610486565b5050509392505050565b600082601f8301126104cc576104cb610203565b5b60016104d9848285610457565b91505092915050565b60008060008061012085870312156104fd576104fc6101fe565b5b600061050b87828801610355565b945050604061051c87828801610406565b93505060c061052d87828801610355565b92505061010061053f878288016104b7565b91505092959194509250565b60008115159050919050565b6105608161054b565b82525050565b600060208201905061057b6000830184610557565b92915050565b600060029050919050565b600081905092915050565b6000819050919050565b6105aa816102bf565b82525050565b60006105bc83836105a1565b60208301905092915050565b6000602082019050919050565b6105de81610581565b6105e8818461058c565b92506105f382610597565b8060005b8381101561062457815161060b87826105b0565b9650610616836105c8565b9250506001810190506105f7565b505050505050565b600060029050919050565b600081905092915050565b6000819050919050565b600081905092915050565b61066081610581565b61066a818461064c565b925061067582610597565b8060005b838110156106a657815161068d87826105b0565b9650610698836105c8565b925050600181019050610679565b505050505050565b60006106ba8383610657565b60408301905092915050565b6000602082019050919050565b6106dc8161062c565b6106e68184610637565b92506106f182610642565b8060005b8381101561072257815161070987826106ae565b9650610714836106c6565b9250506001810190506106f5565b505050505050565b600060019050919050565b600081905092915050565b6000819050919050565b6000602082019050919050565b6107608161072a565b61076a8184610735565b925061077582610740565b8060005b838110156107a657815161078d87826105b0565b96506107988361074a565b925050600181019050610779565b505050505050565b6000610120820190506107c460008301876105d5565b6107d160408301866106d3565b6107de60c08301856105d5565b6107ec610100830184610757565b95945050505050565b6107fe8161054b565b811461080957600080fd5b50565b60008151905061081b816107f5565b92915050565b600060208284031215610837576108366101fe565b5b60006108458482850161080c565b9150509291505056fea2646970667358221220b037b0fb1abcccd810bbcbdc4a6064ac11e064a5564917749f115c1b0f4f8f4164736f6c634300081c0033",
  "linkReferences": {},
  "deployedLinkReferences": {}
}